:020000040000FA
:0600000048EF1EF01200A3
:0600080004EF08F01200F5
:060018000CEF08F01200DD
:0610000048EF1EF0120093
:02100600FFFFEA
:06100800A6EF14F0120037
:021016000001D7
:06101800A8EF14F0120025
:06102A000100203D000062
:08103000000100007300000044
:0810380060EC0EF0A09A6A6A58
:10104000686A706A5AEC0EF0F5EC0DF0DF6ADF505A
:10105000146E156A0C0E145C000E155810E2DF5069
:10106000040DF3CFE9FFF4CFEAFF000EE926040EEA
:10107000EA22EE6AEE6AEE6AEE6ADF2AE8D76D8C43
:101080006E6A6D986D9C68A607D0689601018B6B9F
:10109000906B916B926BF7D70101010EA46FA56F56
:1010A000A66BA76B986BDF6A030EDF5C11E2EA6A3E
:1010B000DF3463EC0EF0EA22EE6AED6AEA6ADF34AE
:1010C0006AEC0EF0EA22EE6AED6AAEEC0DF0ECD7B7
:1010D0000101080E816F040E826F160E706E0401FE
:1010E000300E026F040E036F080E016F840E006F46
:1010F0000101746B736BE55280EF0DF060EC0EF044
:10110000010173510BE16D6A696AF5EC0DF06DB682
:1011100002D06D86FCD70101010E736F730508E1E3
:101120006DBA06D0686A696A69806988020E736F51
:101130006850040B05E06950040B02E0689424DB5E
:101140006DB244D06850010B08E06950010B05E016
:1011500073DF0101040E736F68906850100B05E097
:101160006950100B02E006DB689868AC0FD069ACE0
:1011700005D0FCEC0DF0730E6DEC0DF0689C0101D8
:10118000A25101E0A207A25101E1EFD86850200B63
:1011900004E06950200B01E0DDDA6850020B0BE03F
:1011A0006950020B08E0FCEC0DF0E6687F0EE66E7D
:1011B00071EC0EF06A6A040E0101E76E7319E8AE75
:1011C00002D0E73402D0E750735D02E2A19A2ED03C
:1011D00069A62BD0DF6A040EDF5C27E268A625D063
:1011E0006CCF99F101019951780BE842E842E8424D
:1011F0009A6F689699B504D09A5178EC0EF003D0A6
:101200009A517DEC0EF0EA22EF709A5102E1C8DAB1
:101210000AD0000EE66EE66A990EE66E010EE66EE4
:10122000720E6DEC0DF0DF2AD6D7A19AE55280EF51
:101230000DF034EC0EF0FD0EDBA403D0E66AE5EC15
:101240000DF0FD0EDBA204D0010EE66EE5EC0DF014
:10125000FE0EDB50156A700F146E0F0EDFEC0DF0F2
:1012600071EC0DF0FD0EDBCFEFFF020EE15C02E250
:10127000E16AE552E16E80EF0DF034EC0EF0FD0E08
:10128000DB5003E068EC0DF002D09FEC0DF0CBECEE
:101290000DF0D9CFE9FFDACFEAFFEE50ED1003E110
:1012A000F36AF46A28D071EC0DF08CEC0EF0FB0EB2
:1012B000DBCFEEFFFC0EDBCFEDFF71EC0DF0EE525D
:1012C000FA0EDBCFEFFF400E82EC0EF0880E91ECB1
:1012D0000EF0FD0EDB5003E068EC0DF002D09FEC49
:1012E0000DF0EA22EF74DECF14F0DDCF15F014C05C
:1012F000F3FF15C0F4FF020EE15C02E2E16AE55281
:10130000E16E80EF0DF034EC0EF0FE0EDB5003E1E9
:1013100042EC0EF009D0A4EC0DF022EC0EF0A4EC9F
:101320000DF0010F22EC0EF0020EE15C02E2E16A28
:10133000E552E16EE5D3DFDB6DA816D053EC0EF07D
:10134000400EEE16EE6AEE6AEE6A53EC0EF0EE7C9C
:10135000BFDBEA22EF74400E146E53EC0EF0145013
:10136000EF1653EC0EF0EF7CCBD30101A45122E138
:10137000010EA46FA5511EE1010EA56F020E885D3E
:1013800007E1B4DBEE52EF6AB1DBC80EEF6E12007C
:10139000880510E19B6BC0DBEE52080EEF6EBCDBE4
:1013A0002EEC0EF0B9DB840EEF6E010E9B6F8CDB22
:1013B000800EEF6E12000101A66BA76B020E885D16
:1013C00006E186EC0EF0ADDB1DEC0EF010D08C517A
:1013D0000401365D01018D510401375904E236C420
:1013E0008CF137C48DF161D881DB9BDB7FDBC80ECC
:1013F000EF6E120034EC0EF0000EDE6E040EDD6EA9
:10140000A3DB040DF4CF15F0D9CFE9FFDACFEAFF63
:10141000F350EE261550ED2264DBEF9EFD0EDB50FF
:1014200002E18DDB01D054DBEA22DECFEEFFDDCF1F
:10143000EDFF57DBEF9C55DB040EE926000EEA2298
:10144000EF8C020EE15C02E2E16AE552E16E58D3F4
:101450006D9801018BBF0DD090AF09D0020E886F3F
:10146000A75101E1A8DF0101A56BA46B120042EFB7
:101470000EF0040130AF0DD00101010E886FA651AE
:1014800001E199DF0101A56BA46BA3510DE1B5EF5B
:1014900009F00101020E886F17DB840EEF6EA56B59
:1014A000A46BA35101E161DF120060EC0EF0080EA5
:1014B000DF6E01018C5D000E8D590AE28CC1DFFFE9
:1014C000875102E1010E03D0870502E1020E876F0A
:1014D000DF50156AE8508C5D8C6F15508D598D6FFB
:1014E00005DBEE52DFCFEFFF380E956F040E966FDF
:1014F0008BB10DD0DF5017E089C1F6FF8AC1F7FF2D
:10150000892B000E8A230800F55038DBF3D7DF5013
:101510000AE089C1E9FF8AC1EAFF892B000E8A230C
:10152000EF502CDBF4D7E552EBD29EDBF5DAEE522E
:10153000EFCFDFFFDFCF14F014500101915D000EFB
:10154000925902E291C1DFFFDF50146E156AE85034
:10155000915D916F15509259926F010EDB6ADF50C9
:10156000F36E010EDBCFF4FFF350F45C16E2010ED4
:10157000DB50EA6A380FE96E040EEA22EF50E66E9D
:101580008EC1E9FF8FC1EAFF8E2B000E8F23E5523B
:10159000E750EF6E010EDB2AE2D7000ED88091559E
:1015A000000E92550DE2B2DBBCDAB6DAEF50400B1A
:1015B00003E143DBC80E02D040DB880EEF6E12D091
:1015C00083DA840EEF6E9351941107E005D094C135
:1015D000FAFF01019351F96EFADF0101909FA351C7
:1015E00001E1C3DE020EE15C02E2E16AE552E16E76
:1015F00087D266DB01018B8F5DDB300EE66EE66A1B
:10160000E66A000EE66E040E92DA6D8CDF6A030E57
:10161000DF5C02E2A3DAFBD70BDB750EE66E010E90
:1016200086DA6D9C0101080E816F040E826F000E38
:10163000776F040E786F77C179F17A6F32C474F1E5
:10164000745102E1100E0BD0010EE66EE66A740EC4
:10165000E66E010EE66E010E40DA0101200E736F98
:10166000E5524ED2800E0401305D38E10101C00E1A
:101670008B6F04013351030A1AE0010A09E0030ADF
:101680002BE10101980E896F340E8A6F120E1ED065
:10169000C1DA510EF626350EA0DA020E0101B3DAD8
:1016A000F5CF8CF1030EAFDAF5CF8DF11200030EFA
:1016B000325D0FE2AFDA530EF626350E8EDA89C1AF
:1016C000F6FF8AC1F7FF0800F55001018C6F8D6BA2
:1016D000120001018B6B120001018B6B1200C4DA46
:1016E0000401386B396B30511F0B020A11E0030AF9
:1016F0000CE0010A1EE101018B8F04013881010118
:10170000970517E10401388314D001018B8F11D0A4
:1017100001018B8F040134BF02D0BBDA01D0BEDAE5
:101720003ADAC4DA06E0DDD9EF50040B02E0010E2C
:10173000386F01018BAF07D0380E896F040E8A6FA6
:101740008B81020E8C6F020EE15C02E2E16AE552CF
:10175000E16ED6D170A00CD0DFD9EF50800807E140
:10176000C5D9EF50840803E1D7D98C0EEF6E709085
:10177000689A1200698468986D820101010E986F61
:1017800010DA750E6DEF0DF00101986B0ADA740E28
:10179000A4D96D92699468A402D06894FCD7120011
:1017A0008FDA01012D0EA26FFD0E991539E17E0E23
:1017B0009915E8407F0B040DF3CF77F1F4CF78F162
:1017C000000E7727040E782377C179F178C17AF17A
:1017D0007975A2D9EF503C0BE842E8420D081EE1B2
:1017E000DF6A080EDF5C16E297D9020EE926000ECA
:1017F000BFD9EF50E66EDF50EA6A300FE96E040E93
:10180000EA22E552E750EF6E87D986DAEE2AEF2218
:10181000DF2AE7D781D922DA0AD807D023D805D022
:10182000FD0E9915040801E12CD8E55269D101019A
:10183000876BA36BA66BA76B9B6B886B57D9EF9ECF
:10184000817554D9EF9E8175F8D9EF9E8B6B8C6BA7
:101850008D6B906B916B926B4ED8A3D9030E3DD9D3
:1018600028EF0AF0020E0101885D02E195EF0AF00F
:10187000886B9B5104E128D98C0EEF6E12009B6B94
:1018800012001EDA33D9EF50400B01E0010EDF6E7B
:1018900001018175080E735D08E132C46EFF6E5060
:1018A00002E0100E01D0040E736F880513E11ED9FB
:1018B00038D9FBDD020E0101875D03E117D9840EE3
:1018C00007D0DF5003E112D9C80E02D00FD9880E1D
:1018D000EF6E0FD090AF0CD09351941107E005D06C
:1018E00094C1FAFF01019351F96EFADF0101909F53
:1018F000886BE55205D104013051600BE842E842A3
:10190000E842E842E842000901E0120031510C0AC5
:1019100045E00B0A3FE00C0A31E0010A22E00B0A25
:101920001EE0020A1CE0030A18E0080A10E0010A9F
:101930000CE00F0A08E0030A01E0120001018B8F9E
:10194000080E736F120032EF0BF0F9EF0AF001018D
:10195000740E896F010E8A6F0CD06FEF0BF0CFEF12
:101960000CF034510101896F8A6B750E8927010EC5
:101970008A238B81010E8C6F8B8F120001018B8F5C
:1019800004013451EA6A750FE96E010EEA2232C48D
:10199000EFFF120006D9020E6DEF0DF01200ABD86A
:1019A000050EE1260401320510E130511F0B00093C
:1019B0000CE101018B8F030E0401315D04E1010193
:1019C000010E976F02D00101976B0401325101E0C3
:1019D00074D030511F0B020870E134510F0B000915
:1019E0006CE034510F0B020868E3200E0101735DB7
:1019F00064E18B8F040134BF04D04BD9CCD8D7D845
:101A000003D04CD9C8D8D7D8EA22020EEFCFDBFFDB
:101A100008D9010B03E1000EDF9401D0DF8434BF4D
:101A200002D037D901D03AD9EA22DECFEEFFDDCF9E
:101A3000EDFF030E315D0CE139D907E034BF02D070
:101A4000B6D801D0B8D8EA22EF82840E6AD935D050
:101A5000DF742CD906E045D8EF9E43D8EF8C08D927
:101A600002D03FD8EF8CDF74DCD8020B02E11ED924
:101A70000DE0040134BF02D09AD801D09CD8EA22EC
:101A8000EF923B0E146E3ED9F3D802D03B0E3AD9FA
:101A9000040134510F0B156A700F146E0F0E1522CE
:101AA000030E14C0DBFF040E15C0DBFF030EDBCFFB
:101AB000E9FF040EDBCFEAFFEF90050EE15C02E2E6
:101AC000E16AE552E16E1CD021D9C8D81DEF0EF0B5
:101AD000FE0EEA6ADB3463EF0EF0E66EE66A71EF43
:101AE0000EF0DECFE9FFDDCFEAFF120081C1E9FF92
:101AF00082C1EAFF1200D9CFE6FFE1CFD9FF120081
:101B0000E552E7CFD9FF120034510F0BE96EEA6AB4
:101B1000D890E936EA36120077C1E9FF78C1EAFFCA
:101B20001200FAD8380EEE6E040EED6E1200E66E5C
:101B300052EC1BF0146E050EE15E14501200FE0E06
:101B4000EA6ADB346AEF0EF0FD0EDB50E824166E15
:101B5000FE0EDB50040DF35016241200DF50CDD8DA
:101B6000EA22EF6ADF50C4D8EA22EF6ADF2A1200C5
:101B7000EA22EE50EFCFEAFFE96E1200E66E95C161
:101B8000E9FF96C1EAFF952B000E9623E552E75038
:101B9000EF6EDF061200EA22EECFDEFFEDCFDDFFB3
:101BA0001200000EE66EE66AE66EE66A1200345136
:101BB0000F0B78EF0EF034510F0B7DEF0EF0152266
:101BC00014C0DEFF15C0DDFF1200FE0EDBCFE6FF06
:101BD000FAEC09F0E552E5521200F7220900F5CFC0
:101BE00089F10A00F5CF8AF11200160E6F6E9F0E72
:101BF0006B6E7B0E696E1200010EE66EE66A000ED9
:101C0000E66EE66A1200F76A8925F66E8A51F722B7
:101C1000080012003251F66EF76AD890F636F736A1
:101C20001200D950020FE96EDACFEAFFEF5012002E
:101C3000020EE66EE66AE66A120079C1E9FF7AC131
:101C4000EAFF1200040DF3CF14F0F4CF15F0000EEC
:101C50001426040EB4DF840E91EF0EF05DD8300E22
:101C6000EE6E040EED6E120046DF020EE12612004B
:101C7000020EE66EE66ADECFE6FFDDCFE6FF050E7A
:101C80006DEF0DF021DF8C0EEF6E30DF840EEF6E06
:101C900012003ADF7B0EE926010E120035DF810EBD
:101CA000E926010E120014DFB8EF0DF01ADFEF5035
:101CB000800B1200BDDF710EE66E0F0E97EF0DF078
:101CC0001ADFE6521200FE0BEA36E96E810EE926B3
:101CD000010E1200FE0BEA36E96E7B0EE926010EBC
:101CE000120076EC15F0146E060EE15E1450120030
:101CF000EA6A9F0FE96E010E1200EA6A9C0FE96E14
:101D0000010E1200EEDEE850EF16120096DFEE52E2
:101D1000080EEF6E1DEF0EF0020EE926000EEA220D
:0A1D20001200DFDEE850EF1212009F
:061D2A00D1EC13F0FB0EEA
:101D3000DBCFF3FFDB06F35000090AE01FEC14F0E1
:101D4000FA0E8AEC14F0F3E1151CF1E1010E01D05A
:101D5000000E00EF14F0D1EC13F03B0EE12402E38F
:101D6000E168E652E16E010EDB6A020EDB6AF90EF3
:101D7000DBCFF6FFFA0EDBCFF7FFFB0EDBCFF8FF72
:101D80000800F550DF6EDF5002E124EF13F0250E5E
:101D9000DF5C02E017EF13F0030EDB6A040EDB6A70
:101DA000050EDB6A060EDB6A070EDB6A39EC13F000
:101DB0002D0EDF5C0CE02B0EDF5C09E0200EDF5CFB
:101DC00006E0230EDF5C03E0300EDF5C1AE1DF503B
:101DD000300A14E0130A0FE0030A0AE00B0A05E0D8
:101DE000060AE4E1030EDB80E1D7030EDB82DED7D7
:101DF000030EDB84DBD7030EDB86D8D7030EDB882C
:101E0000D5D72A0EDF5C1BE135EC13F083EC13F021
:101E100010E0030EDB8006680768130EDBCF0BF0C3
:101E2000140EDBCF0CF061EC1DF0040E04C0DBFFE0
:101E300003D0130E6CEC13F039EC13F00BD0090E39
:101E4000DB6ADAEC13F003E04EEC14F0FAD7090E7B
:101E50006CEC13F0030EDBB0DB982E0EDF5C1BE1A5
:101E600039EC13F02A0EDF5C0BE135EC13F083EC58
:101E700013F003E1130EBEEC13F039EC13F00BD0AA
:101E8000090EDB6ADAEC13F003E04EEC14F0FAD73B
:101E9000090EBEEC13F0680EDF5C07E139EC13F0BD
:101EA000680EDF5C1DE1030E18D0740EDF5C17E0D6
:101EB0007A0EDF5C14E0480EDF5C06E0540EDF5C57
:101EC00003E05A0EDF5C02E1020E07D06C0EDF5C0D
:101ED00003E06A0EDF5C04E1010E11EC14F0C9DBD3
:101EE000DF506E0A01E17FD31E0A01E192D1200A80
:101EF00001E18FD13F0A01E149D11A0A01E146D13E
:101F00000D0A01E143D1200A01E140D13A0A01E181
:101F10003DD1200A01E13AD1260A01E135D10D0A6D
:101F200001E132D11A0A01E1D9D0200A4AE0300A8F
:101F30001FE0460A0EE0250A01E083D3D950F90FCD
:101F4000E96EFF0EDA20EA6E010EEE5E000EEE5A2A
:101F5000EE5A1FEC14F0250EE66E95DB03E1151C1E
:101F600001E169D31BEC14F001E26BD3DB2A69D3E6
:101F7000080EDB6A040EDB50010806E2040EDB04E7
:101F8000E3EC13F0DB508BDB080EDB5009E0030EB3
:101F9000DB50010B05E172DB01E04DD3080EDB6A7B
:101FA00064DBEFCFDFFF93EC14F003E1151C01E1DC
:101FB00042D31BEC14F001E3DB2A60DB01E141D3E7
:101FC0003AD3070EDB5002080FE15FEC14F0030E6A
:101FD00026EC14F00E0EEECFDBFF0F0EEECFDBFF84
:101FE000100EEECFDBFF20D0F70EDBCF17F0F80E90
:101FF000DBCF18F0020E175E000E185AF70E17C04E
:10200000DBFFF80E18C0DBFF17C0E9FF18C0EAFFBE
:1020100016EC14F0166A0E0E14C0DBFF0F0E15C07E
:10202000DBFF100E16C0DBFF0E0EDBCFE6FF0F0E40
:10203000DBCFE6FF100EDBCFE6FF7AEC1BF0E552BC
:10204000E552E552130E05C0DBFF140E06C0DBFFA0
:10205000060EDB5005E0130E5AEC14F001E26ADBC9
:102060007EEC14F002E2130E37DB41EC14F006E0D4
:10207000040E5AEC14F002E2050E2EDB030EDBB068
:1020800005D0FCDA01E0D7D2080EDB6A090EDB6A64
:102090000E0EDBCFF6FF0F0EDBCFF7FF100EDBCF00
:1020A000F8FF0800F550DF6EDF5014E084EC14F008
:1020B00011E293EC14F003E1151C01E1BCD2BBDB8F
:1020C00001E3DB2A090EDB2AD9500E0FE96E000E60
:1020D000CBDBE7D7D3DA01E1B4D2ADD2C6DA110E49
:1020E000EECFDBFF120EEDCFDBFF110EDBCFE6FFF5
:1020F000120EDBCFE6FF6CEC1BF0E552E552130E3F
:10210000F3CFDBFF140EF4CFDBFF060EDB5004E051
:10211000130ED0DB01E20EDB7EEC14F002E2130EB4
:10212000DBDAAFDB05E0040EC5DB02E2050ED4DA34
:10213000030EDBB005D0A2DA01E07DD2080EDB6A27
:10214000090EDB6A110EDBCFE9FF120EDBCFEAFFCF
:10215000EFCFDFFFDF5014E0D7DB12E2E4DB03E177
:10216000151C01E168D267DB01E3DB2A090EDB2ADB
:10217000110EDB2ADBCFE9FF120EE8E3DB2AE6D7FC
:102180007DDA01E15ED257D2030EDB8E070EDB044F
:1021900010E195DB040E5ADB0A0EEECFDBFF0B0ECF
:1021A000EECFDBFF0C0EEECFDBFF0D0EEECFDBFF35
:1021B0006CD0070EDB5003082CE1030EDBAE0DD014
:1021C000B2DA020E76DAEFCF14F0156A166A176AE1
:1021D00014AE39D01568166835D0F70EDBCF15F080
:1021E000F80EDBCF16F0020E155E000E165AF70E33
:1021F00015C0DBFFF80E16C0DBFF15C0E9FF16C0E7
:10220000EAFFEFCF14F00A0E14C0DBFF0B0EDB6AFF
:1022100038D0070EDB50020809E1030EDBAE04D014
:1022200059DB16AE10D00ED055DB0DD0030EDBAE51
:1022300012D079DA020E3DDAF9DA166A176A15AEAB
:1022400002D016681768E2DA0C0E16C0DBFF0D0E1E
:1022500017C0DBFF1AD0F70EDBCF16F0F80EDBCF7E
:1022600017F0020E165E000E175AF70E16C0DBFFAF
:10227000F80E17C0DBFF16C0E9FF17C0EAFFD6DA79
:10228000C5DA0C0EDB6A0D0EDB6A060EDB5005E1CB
:10229000010EF36E050EF3CFDBFF150EDB6A160E93
:1022A000DB6AD950370F146E000EDA20156E390E26
:1022B00014C0DBFF3A0E15C0DBFF380EDB6A080ED8
:1022C000DB6A0A0EAEDADF50780A12E0200A10E06C
:1022D000280A0CE0200A0AE03F0A06E00D0A02E0A4
:1022E000200A08E1020E05D0080E03D0080EDF26F2
:1022F000100E97DA030EDBBE02D0DB92DB94DB50CC
:10230000800B24E08ADAD890030EEB50000A08E62E
:10231000000EEE5C000EEE58000EEE58000EEE5869
:1023200015E213DA09680A680B680C68CBEC1CF03C
:102330000A0E00C0DBFF0B0E01C0DBFF0C0E02C05B
:10234000DBFF0D0E03C0DBFF2D0E08D0030EDBA25A
:1023500002D02B0E03D0DBA408D0200EF36E170E94
:10236000F3CFDBFF150EDB2A02D0170EDB6A050E5A
:10237000DB5003E1B7D901E189D0F80E146E3C0EB1
:10238000156E000E166E070EDBCF17F0186A196A6D
:102390001A6A17C009F018C00AF019C00BF01AC069
:1023A0000CF0D3D98EEC1DF014500024F36E1550B0
:1023B0000120F46E16500220F86EF4CFF7FFF3CF31
:1023C000F6FF0800090EF5CFDBFF580EDF5C0FE1CA
:1023D000610EF36E090E7BD90AE3200E146E090E0E
:1023E000DBCFE7FF1450E75E090EE7CFDBFF070EF8
:1023F000DBCF14F0156A166A176A0FDA14C009F0F9
:1024000015C00AF016C00BF017C00CF0EECF04F0A8
:10241000EECF05F0EECF06F0EFCF07F08EEC1DF01B
:1024200007C0EDFF06C0EDFF05C0EDFF04C0EFFFE4
:10243000390EDBCFE9FFDB063A0EDBCFEAFF01E224
:10244000DB06090EDBCFEFFF150EDB2A4BD995E13A
:10245000030EDBA61DD06F0EDF5C06E1C1D918E3C9
:10246000150EDB285BDA14D0780EDF5C09E0580E1D
:10247000DF5C06E0620EDF5C03E0420EDF5C08E139
:10248000020EF36E160EF3CFDBFF02D0150EDB6AE1
:10249000030EDB50100B0EE0040EDBCF14F0050E24
:1024A000DB50D880145406E2060EDB5003E1040E24
:1024B000DB5034DA95D90AE2050EDBCFE7FF150EC3
:1024C000DB50E75E050EE7CFDBFF02D0050EDB6ACF
:1024D000040EDBCF14F0160E45D9D880145414E244
:1024E000160EDBCFE6FF150EDBCFE6FF040EDBCFCB
:1024F000E6FF050EDB50E552E75CE552D880E75475
:10250000E552D880E7545FD9030EDB50010B0BE195
:10251000080EDB5008E0B2D801E08DD0080EDB5089
:10252000BED8080EDB6A170EDB5007E088D9170EFD
:10253000F1D903E1151C01E17ED0160EDB5016E047
:102540007ED9300EE66E9FD802E1151C74E077D973
:10255000DFCFE6FF9FEC1BF0E552E552E552F4CFEA
:1025600015F00001F31C02E1151C65E0050EDBCF40
:1025700014F0160EDB50D880145409E2050EDBCFA0
:10258000E7FF160EDB50E75E050EE7CFDBFF300EF0
:10259000E66E050ECBD94FE1390EDB2ADBCFE9FF22
:1025A0003A0E01E3DB2ADBCFEAFF090EEFCFDBFFB8
:1025B000DB500EE044D9090EADD902E1151C3BE019
:1025C000390EDB2ADBCFE9FF3A0EEDE3DB2AEBD74E
:1025D00055D831E1160EDBCFE6FF080EC3D8E55221
:1025E000E7245DD82ED0070EDB50030A1CE0010A59
:1025F00014E0030A07E07BD9DBCFEEFF020EDBCF4E
:10260000EDFF1FD0F5D8196A17AE02D01868196807
:102610002CD8BCD819C0EEFF14D0EAD817BE186861
:1026200024D8B4D80ED063D9DBCFEFFF0AD07BD942
:1026300005E1151C03E1F368F46810D0FCD801E350
:10264000DB2A79D9C0EF0EF0010EDBCF14F0020EB9
:10265000DBCF15F014C0F3FF15C0F4FF3B0EE15CB7
:1026600002E2E16AE552E16ECBD029D9020E26EFF3
:1026700014F061D90800F550DF6E1200200EE66EEE
:10268000080E96EF14F09FEC1BF0E552E552E55270
:10269000F3CF14F0F4CF15F00001F31C1200146E08
:1026A000156AD950010F4DD91450EE261550ED2260
:1026B0001200185E000E195AF70E18C0DBFFF80E54
:1026C00019C0DBFF18C0E9FF19C0EAFF1200DBCF19
:1026D000F4FFF350F45C1200DB50E76E040EE7CF1A
:1026E000DBFF12000A0EDBCF14F00B0EDBCF15F070
:1026F0000C0EDBCF16F00D0EDBCF17F014501510BB
:10270000161017101200130EEECFDBFF140EEDCFD4
:10271000DBFF130EDBCF14F0140EDBCF15F000013E
:10272000800E15141200F70EDBCF18F0F80EDBCF79
:1027300019F01200050EDB50E66ED950130F01D9C7
:10274000E552E750EE6EED6A12000A0EDBCF04F0A0
:102750000B0EDBCF05F00C0EDBCF06F00D0EDBCF42
:1027600007F01200DBCFE6FF150EDBCFE6FF050E0C
:10277000DB50E552E724E552E7241200DB50CED8C7
:10278000010EF36E060EF3CFDBFF1200EE50EFCF1B
:10279000EAFFE96E16C0EEFF17C0EEFF18C0EEFFAD
:1027A0001200D9CFE6FFDACFE6FFE1CFD9FFE2CFC3
:1027B000DAFF1200DFCFE6FFE66A17EC1EF0E55203
:1027C000E552F3501200E76E080EE7CFDBFF120070
:1027D000EECF14F0EECF15F0EFCF16F0176A12001F
:1027E000050EDBCF14F0150EDB50D8801454120008
:1027F000010EDBCF16F0020EDBCF17F0186A1200C5
:10280000E552E5CFDAFFE7CFD9FF12000A0E14C078
:10281000DBFF0B0E15C0DBFF1200D9500A0FA1EF32
:1028200014F0F36E070EF3CFDBFF1200EECF14F0BF
:10283000EFCF15F01200010EDB2A020E1200FC0E83
:10284000DBCFE6FFFD0EDBCFE6FF1200145E000ECD
:10285000155AF70E14C0DBFFF80E15C0DBFF14C0CD
:10286000E9FF15C0EAFF1200DA20EA6EEF2AEECF88
:10287000F6FF000EEF22EECFF7FFEF22EECFF8FFCC
:102880001200040EDBCFE6FF130EDB50E552E75CCF
:102890009ADFDB5004DF060EDB501200090EDB501E
:1028A0000A0DF350DF24D00FE76E090EE7CFDBFFF0
:1028B00039EF13F0DB50F36E050E67EF13F0F70EF0
:1028C000DBCF14F0F80EDBCF15F01200DFCFE6FF00
:1028D00043EF13F028DF030EECDEE8EF13F095EC86
:1028E0000EF0E552E552E552E55200091200BDDE58
:1028F000EE50EFCFEAFFE96E010E1200130EDB502F
:10290000F36E040E67EF13F0040EDB50F36E090E46
:1029100067EF13F0DBCFE6FF43EF13F0E76E050E32
:10292000E7CFDBFF12008BDF66EF14F0DBCFE6FFB3
:1029300086DF6FEF14F0D950F90FE96EFF0E34EF18
:0C29400014F0E96E000EDA20EA6E1200BE
:04294C0022DB110079
:10295000D8CFE4FFE0CFE4FFE46E1BDBE550E5CF2A
:10296000E0FFE5CFD8FF10000F0EC11202D81CEF18
:1029700008F0E9DAE65219D8DF6ADF50146E156AFA
:10298000400E145C000E155809E2DF50EA6A600F31
:10299000E96E000EEA22EF6ADF2AEFD70001E06B52
:1029A000E16BE36BE46BE552D3D2CDDAE652948E61
:1029B000949C240EAC6E900EAB6E710EAF6E020E38
:1029C000B06E080EB86EAE50DF6EE552C1D2BBDA03
:1029D000FE0EDB50AD6EBCD2B6DA040EE126D88016
:1029E000000E05018755C20E8855010E8955000E4F
:1029F0008A553CE387C580F588C581F589C582F590
:102A00008AC583F5186A1B0E196EB70E1A6E1B6AFB
:102A100018C004F019C005F0066E1BC007F080C591
:102A200009F081C50AF082C50BF083C50CF08EEC6D
:102A30001DF004C014F005C015F006C016F007C064
:102A400017F01406000E155A165A175A14C0DFFF55
:102A5000010E15C0DBFF020E16C0DBFF030E17C010
:102A6000DBFFDF50AF6E010EDB50B06E040EE15C99
:102A700002E2E16AE552E16E6BD265DAE652ABA2A0
:102A800005D0AB98AE50DF6EAB8802D0AE50DF6E93
:102A9000DF50E5525DD21200120012001200EAEF80
:102AA00017F012003AEF18F0010197051EE101013D
:102AB00098051BE1F1DF6D920101986B0001100E8A
:102AC000E56F0E0EE66FE507000EE65BE551E611D9
:102AD000FAE16D84080EE56F070EE66FE507000E5C
:102AE000E65BE551E611FAE16D9412002CDAFD0E79
:102AF000DBCF06F0FE0EDBCF07F0050E061801E176
:102B0000075036E0E868061802E17F0E07182FE04C
:102B1000030E061801E1075028E0020E061801E135
:102B2000075021E0010E061801E107501AE0740E6B
:102B3000061801E1075013E0750E061801E1075071
:102B40000CE0730E061801E1075005E0720E06183E
:102B50000FE107500DD0A1DF0BD09DDF09D09CDF26
:102B600007D0A0DF05D09DDF03D099DF01D096DF2D
:102B7000010EEED1E8D9020EE12627DAE8AE02D046
:102B8000E73402D0E750735D22E36D50020B1FE182
:102B90000001E8511AE1D9CFE9FFDACFEAFF0A0EC6
:102BA000EE6EEE6A020EE66ED9CFE6FFDACFE6FFF2
:102BB0007AEC18F0E552E552E552000906E04B0EBA
:102BC000DF5C03E10101010E016F06EC19F0020E5A
:102BD000E15C02E2E16AE552E16EBAD1010EC4D1D4
:102BE000500EC2D13C0EC0D1460EBED1ACD9EDD9EB
:102BF000E8AE02D0E73402D0E750735D15E36D50C4
:102C0000020B12E10001E8510DE1CAD96CEC1BF096
:102C1000E552E552F350E66EC3D9B9EC18F0E5522F
:102C2000E552E55206EC19F093D18DD93C0EE12620
:102C3000DE6ADD6AD950020FE96EDACFEAFF780E5C
:102C4000EE6E0A0EEE6EEE6AD950050FE96EDACF1F
:102C5000EAFF0A0EEE6EEE6AD950070FE96EDACF80
:102C6000EAFF780EEE6EEE6EEE6EEE6A0B0EDB6A2B
:102C70000C0EDB6A110EDB6AD950120FE96EDACF47
:102C8000EAFF4D0EEE6E490EEE6E430EEE6E520EE4
:102C9000EE6E4F0EEE6E430EEE6E480EEE6E490E69
:102CA000EE6E500EEE6E3A0EEE6E490EEE6E320E77
:102CB000EE6E430EEE6E5F0EEE6E530EEE6E4C0E2B
:102CC000EE6E410EEE6E560EEE6E450EEE6EEE6A36
:102CD000EE6A4ADE93809382939694929494050EC2
:102CE000E66E71EC1EF0E5527E0EE66EB2EC1DF063
:102CF000E552C70EE66EE8EC1DF0E552C70EE66E33
:102D0000E1EC1BF0E552000EE66EE66A32EC1DF0D7
:102D1000E552E552000EE66EE66A03EC1DF0E55260
:102D2000E552D950020F18D97EEC08F0010101518B
:102D30000FE14B0EF36E020EF3CFDBFF51DFD950E4
:102D4000020F0AD917DF7EEC08F001010151F1E012
:102D50000151EAE07EEC08F038D9E8AE02D0E73461
:102D600002D0E750735DF6E36D50020BF3E18CEC9B
:102D70001EF0060EF36E0B0EF3CFDBFF800EF36E2C
:102D80000C0EF3CFDBFFDBCFE6FF0B0EDBCFE6FF56
:102D9000CDEC1DF0E552E552A20EC86E100EDB6AB6
:102DA000140EF36E100EDBCFF4FFF350F45C11E25F
:102DB000D950270F146EDACF15F0100EDB500F012B
:102DC0001424E96E000EDA20EA6EEF6A100EDB2A98
:102DD000E7D7C7A0FED7EBD8060EE66EEFD857ECC4
:102DE0001CF0E552E552E5520009F6E10A0EF36ED9
:102DF0002D0EF3CFDBFF2E0EDB6AE0D8720E146EC1
:102E00003C0E156E166A14C0E6FFE66E16C0E6FFAD
:102E1000480EE66E010EE66EADEC1AF0176E070E68
:102E2000E15E17500101025107E17EEC08F0A1D8E4
:102E30000101010E026F06D07EEC08F0D950070F99
:102E40008BD897D8270EDBCF03F1280EDBCF04F108
:102E50002A0EDBCF06F12B0EDBCF07F12C0EDBCFDA
:102E600008F1060EE66E010EE66ED7EC19F0E5529B
:102E7000E552F3CFDEFFF4CFDDFF500E0101035D1D
:102E80001BE1310E045D18E1DECF14F0DDCF15F04B
:102E9000030ED89014361536E806FBE114C0E6FFA1
:102EA00015C0E6FF32EC1DF0E552E552010E0101BE
:102EB000466F476B310E576F500E035D1BE1320EAC
:102EC000045D18E1DECF14F0DDCF15F0030ED890CD
:102ED00014361536E806FBE114C0E6FF15C0E6FF20
:102EE00003EC1DF0E552E552020E0101466F476BFF
:102EF000320E576FC7A6FED7C7A0FED758D8C7A4B3
:102F00001FD001014651471105E1320EE66E010E58
:102F100039D8FBE10101010E461907E1475105E1EE
:102F20000A0EE66E010E2ED8FBE10101020E4619D3
:102F300007E1475105E11E0EE66E010E23D8FBE1C5
:102F40008CEC1EF007D7D9CFE6FFE1CFD9FF1200F6
:102F5000E552E7CFD9FF1200E66E000EDA20E66EEA
:102F600045DEE552E5521200E66E00EC1EF0E55239
:102F70001200480EE66E010EE66E38DEE552E552AE
:102F80007EEF08F0E66E1CEC1CF0E552E5520009FD
:102F90001200DACFE4FFE652E552E5CFDAFF120085
:102FA000FD0EDBCFE6FFFE0EDBCFE6FF120064EC8A
:102FB0001EF0E76E0F0EE7CFDBFF1200D950270F90
:102FC000E66E000EDA20E66E1200200E0101E76EBA
:042FD000731912005F
:0C2FD400040130511F0B010801E0120045
:102FE0003051600BE842E842E842E842E84201081A
:102FF00001E01200345103E0340501E012003151C8
:10300000220A33E0030A26E0010A15E0210A0DE056
:10301000010A01E012000101F80E896F000E8A6FAB
:10302000080E8C6F8D6B8B8123D00101F80E896F98
:10303000000E8A6F1DD036C491F137C492F10101A0
:10304000870E8E6F050E8F6FD80E936F290E946FBB
:10305000908F12000101800E896F050E8A6F070E96
:103060008C6F8D6BC10E8B6F120032C4F3F00101B7
:103070008B8F12000501806B4B0E816F826B836B0F
:10308000846B856B080E866F0001E76B1A0EE66E87
:10309000010EE66E19EC09F0E552E5521E0EE66EE1
:1030A000020EE66E19EC09F0E552E5521CD900015A
:1030B000F16BF26BE86B120041D96CD9050E061862
:1030C00001E1075002E0000E14D048D90001EF5191
:1030D000141804E1F051151801E105D93FD9000198
:1030E000F151141805E1F251151802E1E86BED6B8E
:1030F000010E29D123D90001E76BEF51F01102E154
:10310000000E05D039D9EF50800B01E0010E000907
:103110002DE1FC0EDBCF14F02FD9EE52EF50D8800A
:10312000145405E229D9EE52FC0EEFCFDBFFE76B1A
:10313000FC0EDB50E75D19E2E751EA6A400FE96EE9
:10314000050EEA22EF50E66EE751E76EFD0EDBCF8B
:10315000E9FFFE0EDBCFEAFFE750E926000EEA2288
:10316000E552E750EF6EE72BE3D7BDD80001E751FA
:10317000EAD0E4D80001E85107E1E9D8FC0EDBCF42
:10318000EDF0010EEE6FE86FDED00BD917E1C0D87D
:10319000ECD802E115500BE0010EDBCFE9FFDB2A92
:1031A000020EDBCFEAFF01E3DB2AEF50F1E1CFD8DB
:1031B000DFCFEDF00001010EEE6FE86F030EE15C72
:1031C00002E2E16AE552E16EBED0EBD818E1A0D888
:1031D000CCD802E115500CE0010EDBCFF6FFDB2A64
:1031E000020EDBCFF7FF01E3DB2A0800F550F0E128
:1031F000AED8DFCFEDF00001EE6B010EE86F030EED
:10320000E15C02E2E16AE552E16E9DD097D8020EE0
:10321000E1260001F151F21102E1000E08D0F1C0E7
:10322000E9FFF2C0EAFFEF50800B01E0010E000958
:1032300053E1030EE85D01E1E86BE8514DE0020E59
:10324000E85D09E1E66A000EE66EE66A59D800011B
:10325000030EE86F41D0E8053FE1400E146E156A99
:10326000ED51145C000E155803E2400EDF6E02D0E3
:10327000EDC0DFFFDF50ED5DED6F000EEB6F050E73
:10328000EC6F010EDFCFDBFFEE510BE1010EDB50E7
:1032900012E0E9C0F6FFEAC0F7FF0800F55041D898
:1032A000F5D7010EDB5007E0E9C0E9FFEAC0EAFF0D
:1032B000EF5037D8F6D70001ED5107E1400EDF5C43
:1032C00002E1020E01D0030EE86FDFCFE6FF000E31
:1032D000E66E050EE66E14D8020EE15C02E2E16ACB
:1032E000E552E16E30D0400EE66E400EE66E050E01
:1032F000E66EE66A46D8F3CFEFF0F4CFF0F01200B6
:10330000010EE66E3ED8F3CFF1F0F4CFF2F01200EA
:10331000DF6A40D8DE5206C0DEFF07C0DDFFDD52A7
:103320001200EBC0E9FFECC0EAFFEF6EEB2B000EE2
:10333000EC23E92BEA23010EDB061200D9CFE6FFCE
:10334000E1CFD9FF1200E552E7CFD9FF1200FD0E01
:10335000DBCFE9F0FE0EDBCFEAF01200FB0EDBCF95
:1033600014F0FC0EDBCF15F01200DF2ADF50146ED4
:10337000156AFF0E14181200EFC0E9FFF0C0EAFF53
:103380001200020EE66E3DEC09F0146E050EE15ED1
:1033900014501200FD0EDBCF06F0FE0EDBCF07F05F
:0E33A0001200CCDF030EE1260001E8511200FE
:0233AE00FF0E10
:1033B000E3CFEAFFE552FF0EE3CFE9FFE552E66A0D
:1033C000E66AD9CFE6FFDACFE6FFFC0EE124D96E3C
:1033D000FF0EE220DA6EE66AE66AE66A200EEF5C2D
:1033E00006E0090EEF5C03E0EF6603D03FD0EE503D
:1033F000F5D72D0EEF5C03E1FF0EE32A03D02B0E71
:10340000EF5C01E1EE502F0EEF6424D03A0EEF6036
:1034100021D0D890F90EE336FA0EE336FD0EDECF5A
:10342000E3FFFE0EDDCFE3FFD890F90EE336FA0E90
:10343000E336D890F90EE336FA0EE336FD0EE3508C
:10344000DE26FE0EE350DD22300EEE5CDE26000EA0
:10345000DD22D9D7FF0EE3CFE8FFE85207E0F90EEF
:10346000E31EE32AFA0ED8B4E306E31EE552E55262
:10347000E552FF0EE3CFDAFFE552FF0EE3CFD9FFAF
:10348000E552E1CFE9FFE2CFEAFFED52ED52EECF98
:08349000F3FFEFCFF4FF12007F
:0834980012010002020000080D
:1034A000D8040A00000101020001090243000201E0
:1034B00000C03209040000010202010005240010CE
:1034C000010424020205240600010524010001076D
:1034D0000581030A000109040100020A0000000737
:1034E00005020240000007058202400000040309B3
:1034F0000434034D006900630072006F00630068CC
:103500000069007000200054006500630068006ED0
:10351000006F006C006F0067007900200049006EAA
:103520000063002E002C034D004900430052004F61
:103530000043004F004E00540052004F004C004129
:103540000044004F005200450053002D004300008E
:0935500000AA34ED34F1342535F4
:06355A00D9CFE6FFDACF35
:10356000E6FFE1CFD9FFE2CFDAFFE652E652E652BC
:10357000E652D950F90F146EFF0EDA20156E020EC6
:1035800014C0DBFF030E15C0DBFF020EDBCFE6FF2E
:10359000030EDBCFE6FFF90EDBCFE6FFFA0EDBCF43
:1035A000E6FFFB0EDBCFE6FFD950FC0FE66EFF0E09
:1035B000DA20E66EABEC0EF0146E070EE15C02E270
:1035C000E16AE552E16E1450F3CFDEFFF4CFDDFF88
:1035D000FC0EDBCFE9FFFD0EDBCFEAFFEF6ADECFAB
:1035E00014F0DDCF15F014C0F3FF15C0F4FF040E86
:1035F000E15C02E2E16AE552E16EE552E5CFDAFF15
:06360000E7CFD9FF120024
:0A3606002A0EF66E100EF76E000E8D
:10361000F86E01010900F550AD6F0900F550AE6F6D
:1036200003E1AD6701D03DD00900F550A86F090056
:10363000F550A96F0900F550AA6F09000900F5506F
:10364000E96E0900F550EA6E090009000900F5501D
:10365000AB6F0900F550AC6F09000900F6CFAFF170
:10366000F7CFB0F1F8CFB1F1A8C1F6FFA9C1F7FFCC
:10367000AAC1F8FF0101AB5302E1AC5307E0090016
:10368000F550EE6EAB07F8E2AC07F9D7AFC1F6FF25
:10369000B0C1F7FFB1C1F8FF0101AD07000EAE5B8D
:0436A000BFD712007E
:0C36A400FE0EE3CFE9FFFF0EE3CFEAFFCC
:1036B000E9CFF3FFEACFF4FFFB0EE35003E1FC0E8A
:1036C000E35009E0FB0EE30602E2FC0EE306FD0E0A
:1036D000E350EE6EF1D71200FE0EE3CFE9FFFF0ECE
:1036E000E3CFEAFFF36AF46AEE5203E0F34AF42A06
:1036F000FBD71200FF0EE3CFF8FFE552FF0EE3CF3A
:10370000F7FFE552FF0EE3CFF6FFE552E66AE66A01
:10371000E66A0900F55209E0FD0EE32A05E1FE0E16
:10372000E32A02E1FF0EE32AF4D7FD0EE3CF05F012
:0E373000FE0EE3CF06F0FF0EE3CF07F012000F
:02373E00D9CFE1
:10374000E6FFDACFE6FFE1CFD9FFE2CFDAFFFB0EEB
:10375000DBCF14F0FC0EDBCF15F00001800E15144A
:103760001AE1FB0EDBCFE9FFFC0EDBCFEAFFEECF69
:10377000F3FFEDCFF4FFEE2A000EEF22F3CFE9FFC7
:10378000F4CFEAFFFD0EDBCFEFFFEF50156AF36ECB
:1037900015C0F4FF10D0FB0EDB50FE0806E1FD0E55
:1037A000DBCFE6FF56EC1EF005D0FD0EDBCFE6FFCB
:1037B0008EEC1EF0E552E552E5CFDAFFE7CFD9FFF8
:0237C0001200F5
:0E37C200D9CFE6FFDACFE6FFE1CFD9FFE2CFA5
:1037D000DAFFE652E652E652E652F8CF02F0F6CFB2
:1037E00003F00C0EBA6E050EF66EF76A300EF86E28
:1037F0000800F550010B03E0010EDB6802D0010E5A
:10380000DB6A010EDB5002E0949201D09396CA94D9
:10381000FD0EDB50CB6ECA8402C0F8FF03C0F6FF7A
:10382000040EE15C02E2E16AE552E16EE552E5CFA9
:08383000DAFFE7CFD9FF120017
:08383800D9CFE6FFDACFE6FF6D
:10384000E1CFD9FFE2CFDAFFE65229D820E0C6A6C1
:103850000AD025D8E66E92EC1CF0E552DF6EDF5000
:1038600010E0DF5015D09E961AD8C96EC6889EA665
:10387000FED7C650100B05E0C750010B02E1FE0E4B
:1038800007D0FC0EDB2AFD0EE0E3DB2ADED7000EBC
:10389000E552E552E5CFDAFFE7CFD9FF1200FC0E83
:0E38A000DBCFE9FFFD0EDBCFEAFFEF50120099
:0238AE00D9CF70
:1038B000E6FFDACFE6FFE1CFD9FFE2CFDAFFFB0E7A
:1038C000DBCFF3FFDB06F350000925E064EC1EF0CC
:1038D000E66EFC0EDBCFE9FFDB2AFD0EDBCFEAFF55
:1038E00001E3DB2AE552E750EF6EC5B6FED7A1A68D
:1038F00002D0FF0E11D00F0EC614080804E00F0E00
:10390000C6140B08DCE1FB0EDB50D9E0C59AC58874
:10391000C5A8D5D7FDD7000EE552E5CFDAFFE7CF32
:04392000D9FF1200B9
:0C392400D9CFE6FFDACFE6FFE1CFD9FFF4
:10393000E2CFDAFFFD0EDB50C96EC6AE02D0FF0E3D
:1039400024D00F0EC61408080FE00F0EC6140B0883
:103950000BE0C6889EA6FED7C750040B03E1C750F4
:10396000010B10E0000E11D00F0EC614080804E081
:103970000F0EC6140B0809E1C7B0FED785EC1EF088
:10398000C5AC02D0FE0E01D0000EE552E5CFDAFF45
:06399000E7CFD9FF120091
:0A39960004500902F3CF00F0F4CF53
:1039A00001F00A02F3500126000EF420026E0450CA
:1039B0000B02F3500226000EF420036E04500C029A
:1039C000F350032605500902F3500126F450022259
:1039D000000E032205500A02F3500226F45003227F
:1039E00005500B02F350032606500902F35002263D
:1039F000F450032206500A02F3500326075009022E
:063A0000F3500326120042
:0A3A0600D9CFE6FFDACFE6FFE1CFEB
:103A1000D9FFE2CFDAFFE652E652FC0EDBCF14F01C
:103A2000FD0EDBCF15F0060ED89014361536E804DF
:103A3000FBE114C0DEFF15C0DDFF010EDB50BB6EE5
:103A4000DF50E840E8403F0B300B146ECF0EBA1445
:103A50001410BA6EE552E552E552E5CFDAFFE7CF32
:043A6000D9FF120078
:0C3A6400D9CFE6FFDACFE6FFE1CFD9FFB3
:103A7000E2CFDAFFE652E652FC0EDBCF14F0FD0E89
:103A8000DBCF15F0060ED89014361536E804FBE1AE
:103A900014C0DEFF15C0DDFF010EDB50BE6EDF502F
:103AA000E840E8403F0B300B146ECF0EBD141410ED
:103AB000BD6EE552E552E552E5CFDAFFE7CFD9FF1B
:023AC0001200F2
:0E3AC20007C013F006C012F006500B02F4CF3E
:103AD00005F0F3CF04F007500C02F4CF07F0F3CF5A
:103AE00006F00B02F3500526F4500622E86A07227E
:103AF00012500C02F3500526F4500622E86A072201
:103B00000CAE87EF1DF01250065E1350075A13AE2D
:0C3B1000000C0B50065E0C50075A000C15
:043B1C00036A026ACC
:103B2000016A006A200EE76ED89004360536063624
:103B3000073600360136023603360950005C0A505B
:103B400001580B5002580C50035809E30950005E0D
:103B50000A50015A0B50025A0C50035A042AE72EFD
:043B6000E4D7120094
:0C3B6400D9CFE6FFDACFE6FFE1CFD9FFB2
:103B7000E2CFDAFFFD0EDB50FB0BCA6ECC6A9E92E1
:103B8000FD0EDBAE02D09D8201D09D92CA84E5522B
:0A3B9000E5CFDAFFE7CFD9FF1200FE
:063B9A00D9CFE6FFDACFEF
:103BA000E6FFE1CFD9FFE2CFDAFF3F0EC716C66AC4
:103BB000C56AFD0EDB50C612FC0EDB50C7129382A5
:103BC0009380C68AE552E5CFDAFFE7CFD9FF12002E
:103BD000D9CFE6FFDACFE6FFE1CFD9FFE2CFDAFFB8
:103BE0000C0EBD129494CA94FD0EDB50CB6ECA84A9
:103BF000E552E5CFDAFFE7CFD9FF12009494120027
:103C0000FF0EE3501D6EEF0E01D0F30EE76EE72EB0
:103C100007EF1EF00C0E1C6EE76AE72E0DEF1EF08C
:0E3C20001C2E0CEF1EF01D2E05EF1EF01200E4
:023C2E00F36A37
:103C3000F46AFF0EE124E96EFF0EE220EA6EED6603
:103C400007D02F0EEF6404D03A0EEF6001D0F32AB4
:023C5000120060
:0E3C5200000EF36E00EE00F0080E01D8120016
:103C6000EA6002D0EE6AFCD7F350E9601200EE6A17
:023C7000FCD77F
:0E3C7200436F6D616E646F20726563656269F9
:103C8000646F20766961206932633A2025730A00E7
:103C900013EE00F023EE00F0F86A0F9C03EC1BF02B
:0C3CA0008FEC1EF015EC16F0FBD71200A4
:043CAC00FF0EE350D4
:103CB000ACBA04D0AF6AAB8EAC8A949CACA2FED7EF
:083CC000AD6EF36EF46A120010
:083CC8000F0EC614080804E009
:103CD0000F0EC6140B0801E1C586C7A0FED7C95058
:023CE0001200D0
:0E3CE200FF0EE350E84E1200000000D000D0AC
:083CF00000D0E82EFAD7120003
:083CF800303132333435363728
:093D0000383961626364656600F4
:063D0A001F0EC514FDE1CF
:083D1000C750040BFAE1120098
:043D1800C69A120035
:023D1C00120093
:023D1E00120091
:103D20000000007878007878780050574D203120D6
:103D3000656D2075736F20202020202020005057B3
:103D40004D203220656D2075736F202020202020AB
:103D5000200050574D206E616F20656E636F6E744A
:103D60007261646F20000000436F6D616E646F20AC
:103D7000726563656269646F207669612069326388
:103D80003A20202020202020202020202020202019
:033D9000202000F0
:020000040030CA
:0100000024DB
:01000100CE30
:010002003FBE
:010003001EDE
:01000500807A
:010006008178
:010008000FE8
:01000900C036
:01000A000FE6
:01000B00E014
:01000C000FE4
:01000D0040B2
:00000001FF
